{
  "_format": "hh3-artifact-1",
  "contractName": "FortunaManager",
  "sourceName": "contracts/FortunaManager.sol",
  "abi": [
    {
      "inputs": [],
      "name": "InvalidAddress",
      "type": "error"
    },
    {
      "inputs": [],
      "name": "InvalidCloseTime",
      "type": "error"
    },
    {
      "inputs": [],
      "name": "InvalidOperation",
      "type": "error"
    },
    {
      "inputs": [],
      "name": "InvalidRoundId",
      "type": "error"
    },
    {
      "inputs": [],
      "name": "OnlyCoreCanCall",
      "type": "error"
    },
    {
      "inputs": [],
      "name": "RoundAlreadyClosed",
      "type": "error"
    },
    {
      "inputs": [],
      "name": "RoundExpired",
      "type": "error"
    },
    {
      "inputs": [],
      "name": "RoundFull",
      "type": "error"
    },
    {
      "inputs": [],
      "name": "RoundNotExpired",
      "type": "error"
    },
    {
      "inputs": [],
      "name": "TransferFailed",
      "type": "error"
    },
    {
      "anonymous": false,
      "inputs": [
        {
          "indexed": true,
          "internalType": "address",
          "name": "admin",
          "type": "address"
        }
      ],
      "name": "AdminAdded",
      "type": "event"
    },
    {
      "anonymous": false,
      "inputs": [
        {
          "indexed": true,
          "internalType": "address",
          "name": "admin",
          "type": "address"
        }
      ],
      "name": "AdminRemoved",
      "type": "event"
    },
    {
      "anonymous": false,
      "inputs": [
        {
          "indexed": true,
          "internalType": "address",
          "name": "newCore",
          "type": "address"
        }
      ],
      "name": "CoreUpdated",
      "type": "event"
    },
    {
      "anonymous": false,
      "inputs": [
        {
          "indexed": true,
          "internalType": "uint256",
          "name": "roundId",
          "type": "uint256"
        },
        {
          "indexed": false,
          "internalType": "uint256",
          "name": "timestamp",
          "type": "uint256"
        }
      ],
      "name": "NewRoundCreated",
      "type": "event"
    },
    {
      "anonymous": false,
      "inputs": [
        {
          "indexed": true,
          "internalType": "address",
          "name": "previousOwner",
          "type": "address"
        },
        {
          "indexed": true,
          "internalType": "address",
          "name": "newOwner",
          "type": "address"
        }
      ],
      "name": "OwnershipTransferred",
      "type": "event"
    },
    {
      "anonymous": false,
      "inputs": [
        {
          "indexed": true,
          "internalType": "uint256",
          "name": "roundId",
          "type": "uint256"
        },
        {
          "indexed": true,
          "internalType": "address",
          "name": "player",
          "type": "address"
        },
        {
          "indexed": false,
          "internalType": "uint256",
          "name": "entryFee",
          "type": "uint256"
        }
      ],
      "name": "PlayerJoined",
      "type": "event"
    },
    {
      "anonymous": false,
      "inputs": [
        {
          "indexed": true,
          "internalType": "address",
          "name": "to",
          "type": "address"
        },
        {
          "indexed": false,
          "internalType": "uint256",
          "name": "amount",
          "type": "uint256"
        }
      ],
      "name": "ProtocolFeeWithdrawn",
      "type": "event"
    },
    {
      "anonymous": false,
      "inputs": [
        {
          "indexed": true,
          "internalType": "uint256",
          "name": "roundId",
          "type": "uint256"
        },
        {
          "indexed": false,
          "internalType": "uint256",
          "name": "totalPlayers",
          "type": "uint256"
        },
        {
          "indexed": false,
          "internalType": "uint256",
          "name": "prizePool",
          "type": "uint256"
        }
      ],
      "name": "RoundClosed",
      "type": "event"
    },
    {
      "anonymous": false,
      "inputs": [
        {
          "indexed": true,
          "internalType": "uint256",
          "name": "roundId",
          "type": "uint256"
        },
        {
          "indexed": true,
          "internalType": "address",
          "name": "winner",
          "type": "address"
        },
        {
          "indexed": false,
          "internalType": "uint256",
          "name": "prizeAmount",
          "type": "uint256"
        }
      ],
      "name": "WinnerSelected",
      "type": "event"
    },
    {
      "inputs": [
        {
          "internalType": "address",
          "name": "admin",
          "type": "address"
        }
      ],
      "name": "addAdmin",
      "outputs": [],
      "stateMutability": "nonpayable",
      "type": "function"
    },
    {
      "inputs": [
        {
          "internalType": "address",
          "name": "",
          "type": "address"
        }
      ],
      "name": "admins",
      "outputs": [
        {
          "internalType": "bool",
          "name": "",
          "type": "bool"
        }
      ],
      "stateMutability": "view",
      "type": "function"
    },
    {
      "inputs": [
        {
          "internalType": "uint256",
          "name": "roundId",
          "type": "uint256"
        }
      ],
      "name": "closeRound",
      "outputs": [],
      "stateMutability": "nonpayable",
      "type": "function"
    },
    {
      "inputs": [],
      "name": "core",
      "outputs": [
        {
          "internalType": "address",
          "name": "",
          "type": "address"
        }
      ],
      "stateMutability": "view",
      "type": "function"
    },
    {
      "inputs": [
        {
          "internalType": "uint256",
          "name": "roundId",
          "type": "uint256"
        },
        {
          "internalType": "uint64",
          "name": "closeTime",
          "type": "uint64"
        },
        {
          "internalType": "uint256",
          "name": "entryPrice",
          "type": "uint256"
        },
        {
          "internalType": "uint32",
          "name": "maxParticipants",
          "type": "uint32"
        }
      ],
      "name": "createRound",
      "outputs": [],
      "stateMutability": "nonpayable",
      "type": "function"
    },
    {
      "inputs": [
        {
          "internalType": "uint256",
          "name": "roundId",
          "type": "uint256"
        }
      ],
      "name": "getParticipants",
      "outputs": [
        {
          "internalType": "address[]",
          "name": "",
          "type": "address[]"
        }
      ],
      "stateMutability": "view",
      "type": "function"
    },
    {
      "inputs": [],
      "name": "getProtocolFees",
      "outputs": [
        {
          "internalType": "uint256",
          "name": "",
          "type": "uint256"
        }
      ],
      "stateMutability": "view",
      "type": "function"
    },
    {
      "inputs": [
        {
          "internalType": "uint256",
          "name": "roundId",
          "type": "uint256"
        }
      ],
      "name": "getRound",
      "outputs": [
        {
          "components": [
            {
              "internalType": "uint256",
              "name": "roundId",
              "type": "uint256"
            },
            {
              "internalType": "uint256",
              "name": "startTimestamp",
              "type": "uint256"
            },
            {
              "internalType": "uint256",
              "name": "endTimestamp",
              "type": "uint256"
            },
            {
              "internalType": "uint256",
              "name": "entryFee",
              "type": "uint256"
            },
            {
              "internalType": "uint256",
              "name": "prizePool",
              "type": "uint256"
            },
            {
              "internalType": "uint256",
              "name": "playerCount",
              "type": "uint256"
            },
            {
              "internalType": "bool",
              "name": "isClosed",
              "type": "bool"
            },
            {
              "internalType": "address",
              "name": "winner",
              "type": "address"
            }
          ],
          "internalType": "struct Types.RoundInfo",
          "name": "",
          "type": "tuple"
        }
      ],
      "stateMutability": "view",
      "type": "function"
    },
    {
      "inputs": [
        {
          "internalType": "uint256",
          "name": "roundId",
          "type": "uint256"
        },
        {
          "internalType": "address",
          "name": "player",
          "type": "address"
        }
      ],
      "name": "hasEntered",
      "outputs": [
        {
          "internalType": "bool",
          "name": "",
          "type": "bool"
        }
      ],
      "stateMutability": "view",
      "type": "function"
    },
    {
      "inputs": [],
      "name": "owner",
      "outputs": [
        {
          "internalType": "address",
          "name": "",
          "type": "address"
        }
      ],
      "stateMutability": "view",
      "type": "function"
    },
    {
      "inputs": [
        {
          "internalType": "uint256",
          "name": "roundId",
          "type": "uint256"
        },
        {
          "internalType": "address",
          "name": "player",
          "type": "address"
        }
      ],
      "name": "registerEntry",
      "outputs": [],
      "stateMutability": "nonpayable",
      "type": "function"
    },
    {
      "inputs": [
        {
          "internalType": "address",
          "name": "admin",
          "type": "address"
        }
      ],
      "name": "removeAdmin",
      "outputs": [],
      "stateMutability": "nonpayable",
      "type": "function"
    },
    {
      "inputs": [
        {
          "internalType": "uint256",
          "name": "roundId",
          "type": "uint256"
        }
      ],
      "name": "roundExists",
      "outputs": [
        {
          "internalType": "bool",
          "name": "",
          "type": "bool"
        }
      ],
      "stateMutability": "view",
      "type": "function"
    },
    {
      "inputs": [
        {
          "internalType": "address",
          "name": "_core",
          "type": "address"
        }
      ],
      "name": "setCore",
      "outputs": [],
      "stateMutability": "nonpayable",
      "type": "function"
    },
    {
      "inputs": [
        {
          "internalType": "uint256",
          "name": "roundId",
          "type": "uint256"
        },
        {
          "internalType": "address",
          "name": "winner",
          "type": "address"
        }
      ],
      "name": "setWinner",
      "outputs": [],
      "stateMutability": "nonpayable",
      "type": "function"
    },
    {
      "inputs": [
        {
          "internalType": "uint256",
          "name": "roundId",
          "type": "uint256"
        }
      ],
      "name": "totalParticipants",
      "outputs": [
        {
          "internalType": "uint256",
          "name": "",
          "type": "uint256"
        }
      ],
      "stateMutability": "view",
      "type": "function"
    },
    {
      "inputs": [
        {
          "internalType": "address",
          "name": "newOwner",
          "type": "address"
        }
      ],
      "name": "transferOwnership",
      "outputs": [],
      "stateMutability": "nonpayable",
      "type": "function"
    },
    {
      "inputs": [
        {
          "internalType": "address",
          "name": "to",
          "type": "address"
        }
      ],
      "name": "withdrawProtocolFees",
      "outputs": [],
      "stateMutability": "nonpayable",
      "type": "function"
    }
  ],
  "bytecode": "0x6080604052348015600e575f5ffd5b505f80546001600160a01b0319163390811782556040519091907f8be0079c531659141344cd1fd0a4f28419497f9722a3daafe3b4186f6b6457e0908290a36110e38061005a5f395ff3fe608060405234801561000f575f5ffd5b5060043610610111575f3560e01c806388ffce5a1161009e578063b1ce73f81161006e578063b1ce73f8146102d9578063c1e3bd3e146102ec578063d8dfcea01461030c578063f2f4eb2614610314578063f2fde38b14610327575f5ffd5b806388ffce5a146102005780638da5cb5b146102225780638f1327c01461024c5780639c623683146102c6575f5ffd5b8063491f093e116100e4578063491f093e1461018757806370480275146101b45780637c7c1256146101c757806380009630146101da57806388e01a98146101ed575f5ffd5b8063073c74f3146101155780631785f53c1461013d5780632d80caa514610152578063429b62e514610165575b5f5ffd5b610128610123366004610f50565b61033a565b60405190151581526020015b60405180910390f35b61015061014b366004610f7a565b610366565b005b610150610160366004610f7a565b6103e0565b610128610173366004610f7a565b60016020525f908152604090205460ff1681565b6101a6610195366004610f9a565b5f9081526003602052604090205490565b604051908152602001610134565b6101506101c2366004610f7a565b61053a565b6101506101d5366004610f50565b6105fd565b6101506101e8366004610f7a565b610829565b6101506101fb366004610f9a565b61090b565b61012861020e366004610f9a565b5f9081526006602052604090205460ff1690565b5f54610234906001600160a01b031681565b6040516001600160a01b039091168152602001610134565b61025f61025a366004610f9a565b610a19565b6040516101349190815181526020808301519082015260408083015190820152606080830151908201526080808301519082015260a0808301519082015260c08083015115159082015260e0918201516001600160a01b0316918101919091526101000190565b6101506102d4366004610f50565b610adf565b6101506102e7366004610fb1565b610bef565b6102ff6102fa366004610f9a565b610df4565b604051610134919061100c565b6007546101a6565b600854610234906001600160a01b031681565b610150610335366004610f7a565b610e5d565b5f8281526004602090815260408083206001600160a01b038516845290915290205460ff165b92915050565b5f546001600160a01b031633146103985760405162461bcd60e51b815260040161038f90611057565b60405180910390fd5b6001600160a01b0381165f81815260016020526040808220805460ff19169055517fa3b62bc36326052d97ea62d63c3d60308ed4c3ea8ac079dd8499f1e9c4f80c0f9190a250565b335f9081526001602052604090205460ff168061040657505f546001600160a01b031633145b6104525760405162461bcd60e51b815260206004820152601a60248201527f41646d696e3a2063616c6c6572206973206e6f742061646d696e000000000000604482015260640161038f565b6001600160a01b0381166104795760405163e6c4247b60e01b815260040160405180910390fd5b600780545f918290556040519091906001600160a01b0384169083908381818185875af1925050503d805f81146104cb576040519150601f19603f3d011682016040523d82523d5f602084013e6104d0565b606091505b50509050806104f2576040516312171d8360e31b815260040160405180910390fd5b826001600160a01b03167f052c2c1904fab85ddafadaeeae6731433f2cba1bcb770a300d25a40d989acf738360405161052d91815260200190565b60405180910390a2505050565b5f546001600160a01b031633146105635760405162461bcd60e51b815260040161038f90611057565b6001600160a01b0381166105af5760405162461bcd60e51b815260206004820152601360248201527241646d696e3a207a65726f206164647265737360681b604482015260640161038f565b6001600160a01b0381165f818152600160208190526040808320805460ff1916909217909155517f44d6d25963f097ad14f29f06854a01f575648a1ef82f30e562ccd3889717e3399190a250565b6008546001600160a01b0316331461062857604051630b1a4a3360e41b815260040160405180910390fd5b5f8281526006602052604090205460ff166106565760405163bfbe031f60e01b815260040160405180910390fd5b5f828152600260205260409020600681015460ff16156106895760405163c117e1ef60e01b815260040160405180910390fd5b806002015442106106ad57604051639e6d804f60e01b815260040160405180910390fd5b5f8381526005602090815260408083205460039092529091205463ffffffff909116116106ed576040516332e1428f60e01b815260040160405180910390fd5b5f8381526004602090815260408083206001600160a01b038616845290915290205460ff161561073057604051631cc6a69960e11b815260040160405180910390fd5b5f8381526003602090815260408083208054600180820183559185528385200180546001600160a01b0319166001600160a01b038816908117909155878552600484528285209085529092528220805460ff1916821790556005830180549192909161079d90849061108e565b909155505060038101546004820180545f906107ba90849061108e565b90915550506003810154600780545f906107d590849061108e565b92505081905550816001600160a01b0316837f03dfbe1fcb4e2d61f3b4a0c93d8f814c92250618b3387f396cc9fc9fafe2c203836003015460405161081c91815260200190565b60405180910390a3505050565b335f9081526001602052604090205460ff168061084f57505f546001600160a01b031633145b61089b5760405162461bcd60e51b815260206004820152601a60248201527f41646d696e3a2063616c6c6572206973206e6f742061646d696e000000000000604482015260640161038f565b6001600160a01b0381166108c25760405163e6c4247b60e01b815260040160405180910390fd5b600880546001600160a01b0319166001600160a01b0383169081179091556040517f0c9c0f914e121785e2cd2269d6698bc11f59a50b85ef9aa1197fb4ddb96c4e56905f90a250565b6008546001600160a01b0316331461093657604051630b1a4a3360e41b815260040160405180910390fd5b5f8181526006602052604090205460ff166109645760405163bfbe031f60e01b815260040160405180910390fd5b5f818152600260205260409020600681015460ff16156109975760405163c117e1ef60e01b815260040160405180910390fd5b80600201544210156109bb57604051622900a960e01b815260040160405180910390fd5b60068101805460ff191660011790556005810154600482015460405184927fa20a3cd9775b12d4a53017859be239856468d3aab2d496ff3e4b54929963432792610a0d92918252602082015260400190565b60405180910390a25050565b610a646040518061010001604052805f81526020015f81526020015f81526020015f81526020015f81526020015f81526020015f151581526020015f6001600160a01b031681525090565b505f90815260026020818152604092839020835161010080820186528254825260018301549382019390935292810154938301939093526003830154606083015260048301546080830152600583015460a083015260069092015460ff8116151560c0830152919091046001600160a01b031660e082015290565b6008546001600160a01b03163314610b0a57604051630b1a4a3360e41b815260040160405180910390fd5b5f8281526006602052604090205460ff16610b385760405163bfbe031f60e01b815260040160405180910390fd5b5f828152600260205260409020600681015460ff16610b6957604051622900a960e01b815260040160405180910390fd5b6001600160a01b038216610b905760405163e6c4247b60e01b815260040160405180910390fd5b600681018054610100600160a81b0319166101006001600160a01b03851690810291909117909155600482015460405190815284907ffee5b04775e1cd2311ed22cd00f5d2403aff38ff6f71d6d393f51854ed6bc9869060200161081c565b6008546001600160a01b03163314610c1a57604051630b1a4a3360e41b815260040160405180910390fd5b5f8481526006602052604090205460ff1615610c4957604051631cc6a69960e11b815260040160405180910390fd5b428367ffffffffffffffff1611610c73576040516395295d1560e01b815260040160405180910390fd5b6040518061010001604052808581526020014281526020018467ffffffffffffffff1681526020018381526020015f81526020015f81526020015f151581526020015f6001600160a01b031681525060025f8681526020019081526020015f205f820151815f01556020820151816001015560408201518160020155606082015181600301556080820151816004015560a0820151816005015560c0820151816006015f6101000a81548160ff02191690831515021790555060e08201518160060160016101000a8154816001600160a01b0302191690836001600160a01b03160217905550905050600160065f8681526020019081526020015f205f6101000a81548160ff0219169083151502179055508060055f8681526020019081526020015f205f6101000a81548163ffffffff021916908363ffffffff160217905550837f9dabc2c637f100895272835b1380dc71381557c8025b8c7af70b855e64bd031a42604051610de691815260200190565b60405180910390a250505050565b5f81815260036020908152604091829020805483518184028101840190945280845260609392830182828015610e5157602002820191905f5260205f20905b81546001600160a01b03168152600190910190602001808311610e33575b50505050509050919050565b5f546001600160a01b03163314610e865760405162461bcd60e51b815260040161038f90611057565b6001600160a01b038116610edc5760405162461bcd60e51b815260206004820181905260248201527f41646d696e3a206e6577206f776e6572206973207a65726f2061646472657373604482015260640161038f565b5f80546040516001600160a01b03808516939216917f8be0079c531659141344cd1fd0a4f28419497f9722a3daafe3b4186f6b6457e091a35f80546001600160a01b0319166001600160a01b0392909216919091179055565b80356001600160a01b0381168114610f4b575f5ffd5b919050565b5f5f60408385031215610f61575f5ffd5b82359150610f7160208401610f35565b90509250929050565b5f60208284031215610f8a575f5ffd5b610f9382610f35565b9392505050565b5f60208284031215610faa575f5ffd5b5035919050565b5f5f5f5f60808587031215610fc4575f5ffd5b84359350602085013567ffffffffffffffff81168114610fe2575f5ffd5b925060408501359150606085013563ffffffff81168114611001575f5ffd5b939692955090935050565b602080825282518282018190525f918401906040840190835b8181101561104c5783516001600160a01b0316835260209384019390920191600101611025565b509095945050505050565b6020808252601e908201527f41646d696e3a2063616c6c6572206973206e6f7420746865206f776e65720000604082015260600190565b8082018082111561036057634e487b7160e01b5f52601160045260245ffdfea2646970667358221220621abe2baa770a275b657403b904388fd70d63539d105044a8ba077335c65b8864736f6c634300081c0033",
  "linkReferences": {},
  "deployedLinkReferences": {},
  "immutableReferences": {},
  "inputSourceName": "project/contracts/FortunaManager.sol",
  "buildInfoId": "solc-0_8_28-8130a1536fa72bfebc384e2cae13d393539b29d9"
}