{
  "_format": "hh3-artifact-1",
  "contractName": "FortunaVRF",
  "sourceName": "contracts/FortunaVRF.sol",
  "abi": [
    {
      "inputs": [
        {
          "internalType": "uint256",
          "name": "roundId_",
          "type": "uint256"
        },
        {
          "internalType": "uint256",
          "name": "entryFee_",
          "type": "uint256"
        },
        {
          "internalType": "uint256",
          "name": "startTimestamp_",
          "type": "uint256"
        },
        {
          "internalType": "address",
          "name": "managerAddress_",
          "type": "address"
        },
        {
          "internalType": "address",
          "name": "coreAddress_",
          "type": "address"
        },
        {
          "internalType": "address",
          "name": "vrfCoordinator_",
          "type": "address"
        },
        {
          "internalType": "bytes32",
          "name": "keyHash_",
          "type": "bytes32"
        },
        {
          "internalType": "uint256",
          "name": "subscriptionId_",
          "type": "uint256"
        },
        {
          "internalType": "uint32",
          "name": "callbackGasLimit_",
          "type": "uint32"
        },
        {
          "internalType": "uint16",
          "name": "requestConfirmations_",
          "type": "uint16"
        }
      ],
      "stateMutability": "nonpayable",
      "type": "constructor"
    },
    {
      "inputs": [],
      "name": "InvalidOperation",
      "type": "error"
    },
    {
      "inputs": [],
      "name": "NotAuthorized",
      "type": "error"
    },
    {
      "inputs": [
        {
          "internalType": "address",
          "name": "have",
          "type": "address"
        },
        {
          "internalType": "address",
          "name": "want",
          "type": "address"
        }
      ],
      "name": "OnlyCoordinatorCanFulfill",
      "type": "error"
    },
    {
      "inputs": [],
      "name": "RandomAlreadyRequested",
      "type": "error"
    },
    {
      "inputs": [],
      "name": "RoundAlreadyClosed",
      "type": "error"
    },
    {
      "inputs": [],
      "name": "RoundExpired",
      "type": "error"
    },
    {
      "inputs": [],
      "name": "RoundFull",
      "type": "error"
    },
    {
      "inputs": [],
      "name": "RoundNotExpired",
      "type": "error"
    },
    {
      "inputs": [],
      "name": "TransferFailed",
      "type": "error"
    },
    {
      "anonymous": false,
      "inputs": [
        {
          "indexed": true,
          "internalType": "uint256",
          "name": "roundId",
          "type": "uint256"
        },
        {
          "indexed": false,
          "internalType": "uint256",
          "name": "amount",
          "type": "uint256"
        }
      ],
      "name": "PlatformFeeCollected",
      "type": "event"
    },
    {
      "anonymous": false,
      "inputs": [
        {
          "indexed": true,
          "internalType": "uint256",
          "name": "roundId",
          "type": "uint256"
        },
        {
          "indexed": true,
          "internalType": "address",
          "name": "player",
          "type": "address"
        },
        {
          "indexed": false,
          "internalType": "uint256",
          "name": "entryFee",
          "type": "uint256"
        }
      ],
      "name": "PlayerJoined",
      "type": "event"
    },
    {
      "anonymous": false,
      "inputs": [
        {
          "indexed": true,
          "internalType": "uint256",
          "name": "roundId",
          "type": "uint256"
        },
        {
          "indexed": true,
          "internalType": "bytes32",
          "name": "requestId",
          "type": "bytes32"
        }
      ],
      "name": "RandomnessRequested",
      "type": "event"
    },
    {
      "anonymous": false,
      "inputs": [
        {
          "indexed": true,
          "internalType": "uint256",
          "name": "roundId",
          "type": "uint256"
        },
        {
          "indexed": false,
          "internalType": "uint256",
          "name": "totalPlayers",
          "type": "uint256"
        },
        {
          "indexed": false,
          "internalType": "uint256",
          "name": "prizePool",
          "type": "uint256"
        }
      ],
      "name": "RoundClosed",
      "type": "event"
    },
    {
      "anonymous": false,
      "inputs": [
        {
          "indexed": true,
          "internalType": "uint256",
          "name": "roundId",
          "type": "uint256"
        },
        {
          "indexed": true,
          "internalType": "address",
          "name": "winner",
          "type": "address"
        },
        {
          "indexed": false,
          "internalType": "uint256",
          "name": "prizeAmount",
          "type": "uint256"
        }
      ],
      "name": "WinnerSelected",
      "type": "event"
    },
    {
      "inputs": [
        {
          "internalType": "address",
          "name": "player",
          "type": "address"
        }
      ],
      "name": "addPlayer",
      "outputs": [],
      "stateMutability": "payable",
      "type": "function"
    },
    {
      "inputs": [],
      "name": "closeRound",
      "outputs": [],
      "stateMutability": "nonpayable",
      "type": "function"
    },
    {
      "inputs": [],
      "name": "core",
      "outputs": [
        {
          "internalType": "address",
          "name": "",
          "type": "address"
        }
      ],
      "stateMutability": "view",
      "type": "function"
    },
    {
      "inputs": [],
      "name": "distributePrize",
      "outputs": [],
      "stateMutability": "nonpayable",
      "type": "function"
    },
    {
      "inputs": [],
      "name": "getParticipants",
      "outputs": [
        {
          "internalType": "address[]",
          "name": "",
          "type": "address[]"
        }
      ],
      "stateMutability": "view",
      "type": "function"
    },
    {
      "inputs": [],
      "name": "getPrizePool",
      "outputs": [
        {
          "internalType": "uint256",
          "name": "",
          "type": "uint256"
        }
      ],
      "stateMutability": "view",
      "type": "function"
    },
    {
      "inputs": [],
      "name": "getRoundId",
      "outputs": [
        {
          "internalType": "uint256",
          "name": "",
          "type": "uint256"
        }
      ],
      "stateMutability": "view",
      "type": "function"
    },
    {
      "inputs": [],
      "name": "getRoundInfo",
      "outputs": [
        {
          "components": [
            {
              "internalType": "uint256",
              "name": "roundId",
              "type": "uint256"
            },
            {
              "internalType": "uint256",
              "name": "startTimestamp",
              "type": "uint256"
            },
            {
              "internalType": "uint256",
              "name": "endTimestamp",
              "type": "uint256"
            },
            {
              "internalType": "uint256",
              "name": "entryFee",
              "type": "uint256"
            },
            {
              "internalType": "uint256",
              "name": "prizePool",
              "type": "uint256"
            },
            {
              "internalType": "uint256",
              "name": "playerCount",
              "type": "uint256"
            },
            {
              "internalType": "bool",
              "name": "isClosed",
              "type": "bool"
            },
            {
              "internalType": "address",
              "name": "winner",
              "type": "address"
            }
          ],
          "internalType": "struct Types.RoundInfo",
          "name": "",
          "type": "tuple"
        }
      ],
      "stateMutability": "view",
      "type": "function"
    },
    {
      "inputs": [],
      "name": "isExpired",
      "outputs": [
        {
          "internalType": "bool",
          "name": "",
          "type": "bool"
        }
      ],
      "stateMutability": "view",
      "type": "function"
    },
    {
      "inputs": [],
      "name": "isRoundFull",
      "outputs": [
        {
          "internalType": "bool",
          "name": "",
          "type": "bool"
        }
      ],
      "stateMutability": "view",
      "type": "function"
    },
    {
      "inputs": [],
      "name": "manager",
      "outputs": [
        {
          "internalType": "contract IFortunaManager",
          "name": "",
          "type": "address"
        }
      ],
      "stateMutability": "view",
      "type": "function"
    },
    {
      "inputs": [],
      "name": "randomResult",
      "outputs": [
        {
          "internalType": "uint256",
          "name": "",
          "type": "uint256"
        }
      ],
      "stateMutability": "view",
      "type": "function"
    },
    {
      "inputs": [
        {
          "internalType": "uint256",
          "name": "requestId",
          "type": "uint256"
        },
        {
          "internalType": "uint256[]",
          "name": "randomWords",
          "type": "uint256[]"
        }
      ],
      "name": "rawFulfillRandomWords",
      "outputs": [],
      "stateMutability": "nonpayable",
      "type": "function"
    },
    {
      "inputs": [],
      "name": "requestRandomNumber",
      "outputs": [
        {
          "internalType": "bytes32",
          "name": "requestId",
          "type": "bytes32"
        }
      ],
      "stateMutability": "nonpayable",
      "type": "function"
    },
    {
      "inputs": [],
      "name": "timeRemaining",
      "outputs": [
        {
          "internalType": "uint256",
          "name": "",
          "type": "uint256"
        }
      ],
      "stateMutability": "view",
      "type": "function"
    },
    {
      "stateMutability": "payable",
      "type": "receive"
    }
  ],
  "bytecode": "0x60a060405234801561000f575f5ffd5b50604051610f19380380610f1983398101604081905261002e91610194565b6001600160a01b0380861660805287166100805760405162461bcd60e51b815260206004820152600e60248201526d24b73b30b634b226b0b730b3b2b960911b60448201526064015b60405180910390fd5b6001600160a01b0386166100c45760405162461bcd60e51b815260206004820152600b60248201526a496e76616c6964436f726560a81b6044820152606401610077565b5f8a905560018890556100d888603c61023d565b600255600398909855600680545f6005556001600160a81b0319169055600880546001600160a01b03199081166001600160a01b039889161790915560098054821696881696909617909555600a80549095169390951692909217909255600c91909155600b55600d805463ffffffff90921665ffffffffffff199092169190911764010000000061ffff9094169390930292909217909155506102629050565b80516001600160a01b038116811461018f575f5ffd5b919050565b5f5f5f5f5f5f5f5f5f5f6101408b8d0312156101ae575f5ffd5b8a5160208c015160408d0151919b50995097506101cd60608c01610179565b96506101db60808c01610179565b95506101e960a08c01610179565b60c08c015160e08d01516101008e0151929750909550935063ffffffff81168114610212575f5ffd5b6101208c015190925061ffff8116811461022a575f5ffd5b809150509295989b9194979a5092959850565b8082018082111561025c57634e487b7160e01b5f52601160045260245ffd5b92915050565b608051610c986102815f395f81816102fd015261033f0152610c985ff3fe6080604052600436106100e7575f3560e01c80638678a7b211610087578063e3cfef6011610057578063e3cfef6014610294578063f2f4eb26146102a8578063f57ee77b146102c7578063feb6e163146102da575f5ffd5b80638678a7b214610245578063884bf67c14610259578063b1275f9a1461026d578063e278fe6f14610280575f5ffd5b8063481c6a75116100c2578063481c6a751461015e5780635aa68ac01461019557806377b6e504146101b657806384bc76a6146101ca575f5ffd5b80631fe543e3146100f25780632f13b60c1461011357806342619f661461013b575f5ffd5b366100ee57005b5f5ffd5b3480156100fd575f5ffd5b5061011161010c366004610a5a565b6102f2565b005b34801561011e575f5ffd5b506002544210155b60405190151581526020015b60405180910390f35b348015610146575f5ffd5b50610150600e5481565b604051908152602001610132565b348015610169575f5ffd5b5060085461017d906001600160a01b031681565b6040516001600160a01b039091168152602001610132565b3480156101a0575f5ffd5b506101a961037e565b6040516101329190610b2e565b3480156101c1575f5ffd5b506101116103de565b3480156101d5575f5ffd5b506101de610584565b6040516101329190815181526020808301519082015260408083015190820152606080830151908201526080808301519082015260a0808301519082015260c08083015115159082015260e0918201516001600160a01b0316918101919091526101000190565b348015610250575f5ffd5b5061015061062d565b348015610264575f5ffd5b50610150610747565b61011161027b366004610b79565b61075d565b34801561028b575f5ffd5b506101116108ae565b34801561029f575f5ffd5b50610150610960565b3480156102b3575f5ffd5b5060095461017d906001600160a01b031681565b3480156102d2575f5ffd5b505f54610150565b3480156102e5575f5ffd5b5060075460321115610126565b336001600160a01b037f000000000000000000000000000000000000000000000000000000000000000016146103705760405163073e64fd60e21b81523360048201526001600160a01b037f000000000000000000000000000000000000000000000000000000000000000016602482015260440160405180910390fd5b61037a828261097e565b5050565b606060078054806020026020016040519081016040528092919081815260200182805480156103d457602002820191905f5260205f20905b81546001600160a01b031681526001909101906020018083116103b6575b5050505050905090565b6009546001600160a01b031633146104095760405163ea8e4eb560e01b815260040160405180910390fd5b60065460ff1661042b57604051622900a960e01b815260040160405180910390fd5b60065461010090046001600160a01b031661045957604051631cc6a69960e11b815260040160405180910390fd5b600954600160a01b900460ff161561048457604051631cc6a69960e11b815260040160405180910390fd5b6009805460ff60a01b1916600160a01b1790556007546003545f916104a891610bba565b90505f60646104b8836002610bba565b6104c29190610beb565b90505f6104cf8284610bfe565b6006546040519192505f916101009091046001600160a01b03169083908381818185875af1925050503d805f8114610522576040519150601f19603f3d011682016040523d82523d5f602084013e610527565b606091505b5050905080610549576040516312171d8360e31b815260040160405180910390fd5b5f546040518481527fa8341f104131cae3e9965326a01662a1e0dc3dc60c8d099fefa4578ef8f6f9ae9060200160405180910390a250505050565b6105cf6040518061010001604052805f81526020015f81526020015f81526020015f81526020015f81526020015f81526020015f151581526020015f6001600160a01b031681525090565b506040805161010080820183525f5482526001546020830152600254928201929092526003546060820152600454608082015260055460a082015260065460ff8116151560c0830152919091046001600160a01b031660e082015290565b600f545f9060ff16156106535760405163590bd26f60e01b815260040160405180910390fd5b600f805460ff19166001908117909155600a54600c54600b54600d546040516305d3b1d360e41b8152600481019390935267ffffffffffffffff909116602483015261ffff640100000000820416604483015263ffffffff16606482015260848101929092525f916001600160a01b0390911690635d3b1d309060a4016020604051808303815f875af11580156106ec573d5f5f3e3d5ffd5b505050506040513d601f19601f820116820180604052508101906107109190610c11565b5f8054604051929450849350839290917f587602b661da57eff43c58d2ebb4b7c66d08862f786faf29f390136b3309a12891a35090565b6007546003545f9161075891610bba565b905090565b6009546001600160a01b031633146107885760405163ea8e4eb560e01b815260040160405180910390fd5b60065460ff16156107ac5760405163c117e1ef60e01b815260040160405180910390fd5b60025442106107ce57604051639e6d804f60e01b815260040160405180910390fd5b6007546032116107f1576040516332e1428f60e01b815260040160405180910390fd5b60078054600180820183555f9283527fa66cc928b5edb82af9bd49922954155ab7b0942694bea4ce44661d9a8736c68890910180546001600160a01b0319166001600160a01b0385161790556005805491929091610850908490610c28565b90915550505f546003546040519081526001600160a01b03831691907f03dfbe1fcb4e2d61f3b4a0c93d8f814c92250618b3387f396cc9fc9fafe2c2039060200160405180910390a36007546032036108ab576108ab6108ae565b50565b6009546001600160a01b031633146108d95760405163ea8e4eb560e01b815260040160405180910390fd5b60065460ff16156108fd5760405163c117e1ef60e01b815260040160405180910390fd5b6006805460ff191660011790555f546007546003547fa20a3cd9775b12d4a53017859be239856468d3aab2d496ff3e4b5492996343279190610940908290610bba565b6040805192835260208301919091520160405180910390a26108ab61062d565b6002545f90421061097057505f90565b600254610758904290610bfe565b805f8151811061099057610990610c3b565b6020908102919091010151600e8190556007545f916109af9190610c4f565b9050600781815481106109c4576109c4610c3b565b5f91825260208220015460068054610100600160a81b0319166101006001600160a01b0393841681029190911791829055925460075460035494909204909216927ffee5b04775e1cd2311ed22cd00f5d2403aff38ff6f71d6d393f51854ed6bc98691610a3091610bba565b60405190815260200160405180910390a3505050565b634e487b7160e01b5f52604160045260245ffd5b5f5f60408385031215610a6b575f5ffd5b82359150602083013567ffffffffffffffff811115610a88575f5ffd5b8301601f81018513610a98575f5ffd5b803567ffffffffffffffff811115610ab257610ab2610a46565b8060051b604051601f19603f830116810181811067ffffffffffffffff82111715610adf57610adf610a46565b604052918252602081840181019290810188841115610afc575f5ffd5b6020850194505b83851015610b1f57843580825260209586019590935001610b03565b50809450505050509250929050565b602080825282518282018190525f918401906040840190835b81811015610b6e5783516001600160a01b0316835260209384019390920191600101610b47565b509095945050505050565b5f60208284031215610b89575f5ffd5b81356001600160a01b0381168114610b9f575f5ffd5b9392505050565b634e487b7160e01b5f52601160045260245ffd5b8082028115828204841417610bd157610bd1610ba6565b92915050565b634e487b7160e01b5f52601260045260245ffd5b5f82610bf957610bf9610bd7565b500490565b81810381811115610bd157610bd1610ba6565b5f60208284031215610c21575f5ffd5b5051919050565b80820180821115610bd157610bd1610ba6565b634e487b7160e01b5f52603260045260245ffd5b5f82610c5d57610c5d610bd7565b50069056fea2646970667358221220b94250d4a634ce78cb151291455b17f2be628dce554aea1d1b27702ccaaf642164736f6c634300081c0033",
  "linkReferences": {},
  "deployedLinkReferences": {},
  "immutableReferences": {
    "10": [
      {
        "length": 32,
        "start": 765
      },
      {
        "length": 32,
        "start": 831
      }
    ]
  },
  "inputSourceName": "project/contracts/FortunaVRF.sol",
  "buildInfoId": "solc-0_8_28-2a7e9fc5bfdcfc0465675f499920d84b13e7cae6"
}